:020000040000FA
:020000000528D1
:06000A00831603138601BA
:100010008801831286018801383031200C3031206C
:100020000130312048302F204F302F204C302F20EE
:1000300041302F202C302F2020302F204D302F20EA
:1000400055302F204E302F2044302F204F302F207E
:1000500021302F203820013031203820122806147A
:1000600032280610880086143820861038200800B0
:100070002030A1005030A2006030A300A30B3E2826
:0A008000A20B3C28A10B3A2808004F
:00000001FF
