:020000040000FA
:100000000128831606309F00FF3085008601831289
:10001000A0010130860005080339003005060319E8
:100020001E2001300506031923200230050603199E
:100030002B2003300506031935200B2806143F201A
:1000400006103F200800210886004C20A10A210844
:10005000FF39A100080006143F2006108614552021
:10006000861006154C2006110800200886005E2028
:10007000A00A01308600031D0B28A00108002030D3
:10008000A4003530A5005030A600A60B4528A50BCE
:100090004328A40B41280800FA30A400FA30A50038
:1000A000A40B5028A50B50280800AF30A400AF3097
:1000B000A500A40B5928A50B592808006430A400FA
:0600C000A40B60280800FB
:00000001FF
