:020000040000FA
:020000000528D1
:06000A0083160313013010
:10001000870086018801831286018801030102306E
:10002000A0000930A100392007181728242820082B
:10003000093C03191D28A00A3228A001A10A2108A1
:100040000A3C0319A10132282008003A03192A2882
:10005000A00332280930A0002108003A03190A3011
:10006000A100A1032008472088002108472086001E
:1000700013282030A2005030A3006030A400A40B4D
:100080003F28A30B3D28A20B3B28080008000F398E
:1000900082073F3406345B344F3466346D347D342C
:1000A00087347F34673477347C3439345E34793440
:0200B0007134A9
:00000001FF
